{
  "abi": [
    {
      "inputs": [
        {
          "internalType": "contract IEntryPoint",
          "name": "anEntryPoint",
          "type": "address"
        },
        {
          "internalType": "address",
          "name": "_webauthnVerifier",
          "type": "address"
        },
        {
          "internalType": "address",
          "name": "_loginService",
          "type": "address"
        },
        {
          "internalType": "address",
          "name": "_factory",
          "type": "address"
        }
      ],
      "stateMutability": "nonpayable",
      "type": "constructor"
    },
    {
      "anonymous": false,
      "inputs": [
        {
          "indexed": false,
          "internalType": "address",
          "name": "previousAdmin",
          "type": "address"
        },
        {
          "indexed": false,
          "internalType": "address",
          "name": "newAdmin",
          "type": "address"
        }
      ],
      "name": "AdminChanged",
      "type": "event"
    },
    {
      "anonymous": false,
      "inputs": [
        {
          "indexed": true,
          "internalType": "address",
          "name": "beacon",
          "type": "address"
        }
      ],
      "name": "BeaconUpgraded",
      "type": "event"
    },
    {
      "anonymous": false,
      "inputs": [
        {
          "indexed": false,
          "internalType": "address",
          "name": "newGuardian",
          "type": "address"
        }
      ],
      "name": "GuardianAdded",
      "type": "event"
    },
    {
      "anonymous": false,
      "inputs": [
        {
          "indexed": false,
          "internalType": "address",
          "name": "removedGuardian",
          "type": "address"
        }
      ],
      "name": "GuardianRemoved",
      "type": "event"
    },
    {
      "anonymous": false,
      "inputs": [
        {
          "indexed": false,
          "internalType": "uint8",
          "name": "version",
          "type": "uint8"
        }
      ],
      "name": "Initialized",
      "type": "event"
    },
    {
      "anonymous": false,
      "inputs": [
        {
          "indexed": false,
          "internalType": "address",
          "name": "newOwner",
          "type": "address"
        }
      ],
      "name": "OwnerAdded",
      "type": "event"
    },
    {
      "anonymous": false,
      "inputs": [
        {
          "indexed": false,
          "internalType": "address",
          "name": "removedOwner",
          "type": "address"
        }
      ],
      "name": "OwnerRemoved",
      "type": "event"
    },
    {
      "anonymous": false,
      "inputs": [
        {
          "indexed": false,
          "internalType": "uint256",
          "name": "proposalId",
          "type": "uint256"
        },
        {
          "indexed": false,
          "internalType": "address",
          "name": "discardedBy",
          "type": "address"
        }
      ],
      "name": "ProposalDiscarded",
      "type": "event"
    },
    {
      "anonymous": false,
      "inputs": [
        {
          "indexed": false,
          "internalType": "uint256",
          "name": "proposalId",
          "type": "uint256"
        },
        {
          "indexed": false,
          "internalType": "bytes",
          "name": "newSignerProposed",
          "type": "bytes"
        },
        {
          "indexed": false,
          "internalType": "address",
          "name": "proposer",
          "type": "address"
        }
      ],
      "name": "ProposalSubmitted",
      "type": "event"
    },
    {
      "anonymous": false,
      "inputs": [
        {
          "indexed": false,
          "internalType": "uint256",
          "name": "newTimelock",
          "type": "uint256"
        }
      ],
      "name": "ProposalTimelockChanged",
      "type": "event"
    },
    {
      "anonymous": false,
      "inputs": [
        {
          "indexed": false,
          "internalType": "uint256",
          "name": "proposalId",
          "type": "uint256"
        },
        {
          "indexed": false,
          "internalType": "bytes",
          "name": "newSignerProposed",
          "type": "bytes"
        },
        {
          "indexed": false,
          "internalType": "uint256",
          "name": "approvalCount",
          "type": "uint256"
        }
      ],
      "name": "QuorumNotReached",
      "type": "event"
    },
    {
      "anonymous": false,
      "inputs": [
        {
          "indexed": false,
          "internalType": "contract IEntryPoint",
          "name": "entryPoint",
          "type": "address"
        },
        {
          "components": [
            {
              "internalType": "address",
              "name": "sender",
              "type": "address"
            },
            {
              "internalType": "uint256",
              "name": "nonce",
              "type": "uint256"
            },
            {
              "internalType": "bytes",
              "name": "initCode",
              "type": "bytes"
            },
            {
              "internalType": "bytes",
              "name": "callData",
              "type": "bytes"
            },
            {
              "internalType": "uint256",
              "name": "callGasLimit",
              "type": "uint256"
            },
            {
              "internalType": "uint256",
              "name": "verificationGasLimit",
              "type": "uint256"
            },
            {
              "internalType": "uint256",
              "name": "preVerificationGas",
              "type": "uint256"
            },
            {
              "internalType": "uint256",
              "name": "maxFeePerGas",
              "type": "uint256"
            },
            {
              "internalType": "uint256",
              "name": "maxPriorityFeePerGas",
              "type": "uint256"
            },
            {
              "internalType": "bytes",
              "name": "paymasterAndData",
              "type": "bytes"
            },
            {
              "internalType": "bytes",
              "name": "signature",
              "type": "bytes"
            }
          ],
          "indexed": false,
          "internalType": "struct UserOperation",
          "name": "userOp",
          "type": "tuple"
        },
        {
          "indexed": false,
          "internalType": "bytes32",
          "name": "userOpHash",
          "type": "bytes32"
        }
      ],
      "name": "SignatureValidation",
      "type": "event"
    },
    {
      "anonymous": false,
      "inputs": [
        {
          "indexed": true,
          "internalType": "address",
          "name": "implementation",
          "type": "address"
        }
      ],
      "name": "Upgraded",
      "type": "event"
    },
    {
      "anonymous": false,
      "inputs": [
        {
          "indexed": true,
          "internalType": "contract IEntryPoint",
          "name": "entryPoint",
          "type": "address"
        },
        {
          "indexed": true,
          "internalType": "string",
          "name": "login",
          "type": "string"
        }
      ],
      "name": "WebAuthnAccountInitialized",
      "type": "event"
    },
    {
      "inputs": [
        {
          "internalType": "bytes",
          "name": "",
          "type": "bytes"
        },
        {
          "internalType": "uint256",
          "name": "",
          "type": "uint256"
        }
      ],
      "name": "_signers",
      "outputs": [
        {
          "internalType": "uint256",
          "name": "",
          "type": "uint256"
        }
      ],
      "stateMutability": "view",
      "type": "function"
    },
    {
      "inputs": [],
      "name": "_signersCount",
      "outputs": [
        {
          "internalType": "uint8",
          "name": "",
          "type": "uint8"
        }
      ],
      "stateMutability": "view",
      "type": "function"
    },
    {
      "inputs": [],
      "name": "addDeposit",
      "outputs": [],
      "stateMutability": "payable",
      "type": "function"
    },
    {
      "inputs": [
        {
          "internalType": "bytes",
          "name": "credId",
          "type": "bytes"
        },
        {
          "internalType": "uint256[2]",
          "name": "pubKeyCoordinates",
          "type": "uint256[2]"
        }
      ],
      "name": "addFirstSigner",
      "outputs": [],
      "stateMutability": "nonpayable",
      "type": "function"
    },
    {
      "inputs": [
        {
          "internalType": "address",
          "name": "_newOwner",
          "type": "address"
        }
      ],
      "name": "addOwner",
      "outputs": [],
      "stateMutability": "nonpayable",
      "type": "function"
    },
    {
      "inputs": [
        {
          "internalType": "bytes",
          "name": "credId",
          "type": "bytes"
        },
        {
          "internalType": "uint256[2]",
          "name": "pubKeyCoordinates",
          "type": "uint256[2]"
        }
      ],
      "name": "addSigner",
      "outputs": [],
      "stateMutability": "nonpayable",
      "type": "function"
    },
    {
      "inputs": [],
      "name": "entryPoint",
      "outputs": [
        {
          "internalType": "contract IEntryPoint",
          "name": "",
          "type": "address"
        }
      ],
      "stateMutability": "view",
      "type": "function"
    },
    {
      "inputs": [
        {
          "internalType": "address",
          "name": "dest",
          "type": "address"
        },
        {
          "internalType": "uint256",
          "name": "value",
          "type": "uint256"
        },
        {
          "internalType": "bytes",
          "name": "func",
          "type": "bytes"
        }
      ],
      "name": "execute",
      "outputs": [],
      "stateMutability": "nonpayable",
      "type": "function"
    },
    {
      "inputs": [
        {
          "internalType": "address[]",
          "name": "dest",
          "type": "address[]"
        },
        {
          "internalType": "uint256[]",
          "name": "value",
          "type": "uint256[]"
        },
        {
          "internalType": "bytes[]",
          "name": "func",
          "type": "bytes[]"
        }
      ],
      "name": "executeBatch",
      "outputs": [],
      "stateMutability": "nonpayable",
      "type": "function"
    },
    {
      "inputs": [],
      "name": "factory",
      "outputs": [
        {
          "internalType": "address",
          "name": "",
          "type": "address"
        }
      ],
      "stateMutability": "view",
      "type": "function"
    },
    {
      "inputs": [],
      "name": "getDeposit",
      "outputs": [
        {
          "internalType": "uint256",
          "name": "",
          "type": "uint256"
        }
      ],
      "stateMutability": "view",
      "type": "function"
    },
    {
      "inputs": [],
      "name": "getNonce",
      "outputs": [
        {
          "internalType": "uint256",
          "name": "",
          "type": "uint256"
        }
      ],
      "stateMutability": "view",
      "type": "function"
    },
    {
      "inputs": [
        {
          "internalType": "string",
          "name": "login",
          "type": "string"
        }
      ],
      "name": "initialize",
      "outputs": [],
      "stateMutability": "nonpayable",
      "type": "function"
    },
    {
      "inputs": [
        {
          "internalType": "address",
          "name": "_address",
          "type": "address"
        }
      ],
      "name": "isOwner",
      "outputs": [
        {
          "internalType": "bool",
          "name": "",
          "type": "bool"
        }
      ],
      "stateMutability": "view",
      "type": "function"
    },
    {
      "inputs": [],
      "name": "loginService",
      "outputs": [
        {
          "internalType": "address",
          "name": "",
          "type": "address"
        }
      ],
      "stateMutability": "view",
      "type": "function"
    },
    {
      "inputs": [
        {
          "internalType": "address",
          "name": "",
          "type": "address"
        },
        {
          "internalType": "address",
          "name": "",
          "type": "address"
        },
        {
          "internalType": "uint256[]",
          "name": "",
          "type": "uint256[]"
        },
        {
          "internalType": "uint256[]",
          "name": "",
          "type": "uint256[]"
        },
        {
          "internalType": "bytes",
          "name": "",
          "type": "bytes"
        }
      ],
      "name": "onERC1155BatchReceived",
      "outputs": [
        {
          "internalType": "bytes4",
          "name": "",
          "type": "bytes4"
        }
      ],
      "stateMutability": "pure",
      "type": "function"
    },
    {
      "inputs": [
        {
          "internalType": "address",
          "name": "",
          "type": "address"
        },
        {
          "internalType": "address",
          "name": "",
          "type": "address"
        },
        {
          "internalType": "uint256",
          "name": "",
          "type": "uint256"
        },
        {
          "internalType": "uint256",
          "name": "",
          "type": "uint256"
        },
        {
          "internalType": "bytes",
          "name": "",
          "type": "bytes"
        }
      ],
      "name": "onERC1155Received",
      "outputs": [
        {
          "internalType": "bytes4",
          "name": "",
          "type": "bytes4"
        }
      ],
      "stateMutability": "pure",
      "type": "function"
    },
    {
      "inputs": [
        {
          "internalType": "address",
          "name": "",
          "type": "address"
        },
        {
          "internalType": "address",
          "name": "",
          "type": "address"
        },
        {
          "internalType": "uint256",
          "name": "",
          "type": "uint256"
        },
        {
          "internalType": "bytes",
          "name": "",
          "type": "bytes"
        }
      ],
      "name": "onERC721Received",
      "outputs": [
        {
          "internalType": "bytes4",
          "name": "",
          "type": "bytes4"
        }
      ],
      "stateMutability": "pure",
      "type": "function"
    },
    {
      "inputs": [],
      "name": "ownerCount",
      "outputs": [
        {
          "internalType": "uint256",
          "name": "",
          "type": "uint256"
        }
      ],
      "stateMutability": "view",
      "type": "function"
    },
    {
      "inputs": [
        {
          "internalType": "address",
          "name": "tokenAddr",
          "type": "address"
        },
        {
          "internalType": "uint256",
          "name": "amount",
          "type": "uint256"
        },
        {
          "internalType": "address",
          "name": "customerAddr",
          "type": "address"
        },
        {
          "internalType": "string",
          "name": "message",
          "type": "string"
        }
      ],
      "name": "pay",
      "outputs": [],
      "stateMutability": "nonpayable",
      "type": "function"
    },
    {
      "inputs": [],
      "name": "proxiableUUID",
      "outputs": [
        {
          "internalType": "bytes32",
          "name": "",
          "type": "bytes32"
        }
      ],
      "stateMutability": "view",
      "type": "function"
    },
    {
      "inputs": [
        {
          "internalType": "address",
          "name": "token",
          "type": "address"
        },
        {
          "internalType": "uint256",
          "name": "allowance",
          "type": "uint256"
        }
      ],
      "name": "setDailyAllowance",
      "outputs": [],
      "stateMutability": "nonpayable",
      "type": "function"
    },
    {
      "inputs": [
        {
          "internalType": "bytes",
          "name": "toSlice",
          "type": "bytes"
        },
        {
          "internalType": "uint256",
          "name": "start",
          "type": "uint256"
        },
        {
          "internalType": "uint256",
          "name": "end",
          "type": "uint256"
        }
      ],
      "name": "sliceBytes",
      "outputs": [
        {
          "internalType": "bytes",
          "name": "",
          "type": "bytes"
        }
      ],
      "stateMutability": "pure",
      "type": "function"
    },
    {
      "inputs": [
        {
          "internalType": "bytes4",
          "name": "interfaceId",
          "type": "bytes4"
        }
      ],
      "name": "supportsInterface",
      "outputs": [
        {
          "internalType": "bool",
          "name": "",
          "type": "bool"
        }
      ],
      "stateMutability": "view",
      "type": "function"
    },
    {
      "inputs": [
        {
          "internalType": "address",
          "name": "",
          "type": "address"
        },
        {
          "internalType": "address",
          "name": "",
          "type": "address"
        },
        {
          "internalType": "address",
          "name": "",
          "type": "address"
        },
        {
          "internalType": "uint256",
          "name": "",
          "type": "uint256"
        },
        {
          "internalType": "bytes",
          "name": "",
          "type": "bytes"
        },
        {
          "internalType": "bytes",
          "name": "",
          "type": "bytes"
        }
      ],
      "name": "tokensReceived",
      "outputs": [],
      "stateMutability": "pure",
      "type": "function"
    },
    {
      "inputs": [
        {
          "internalType": "address",
          "name": "newImplementation",
          "type": "address"
        }
      ],
      "name": "upgradeTo",
      "outputs": [],
      "stateMutability": "nonpayable",
      "type": "function"
    },
    {
      "inputs": [
        {
          "internalType": "address",
          "name": "newImplementation",
          "type": "address"
        },
        {
          "internalType": "bytes",
          "name": "data",
          "type": "bytes"
        }
      ],
      "name": "upgradeToAndCall",
      "outputs": [],
      "stateMutability": "payable",
      "type": "function"
    },
    {
      "inputs": [
        {
          "components": [
            {
              "internalType": "address",
              "name": "sender",
              "type": "address"
            },
            {
              "internalType": "uint256",
              "name": "nonce",
              "type": "uint256"
            },
            {
              "internalType": "bytes",
              "name": "initCode",
              "type": "bytes"
            },
            {
              "internalType": "bytes",
              "name": "callData",
              "type": "bytes"
            },
            {
              "internalType": "uint256",
              "name": "callGasLimit",
              "type": "uint256"
            },
            {
              "internalType": "uint256",
              "name": "verificationGasLimit",
              "type": "uint256"
            },
            {
              "internalType": "uint256",
              "name": "preVerificationGas",
              "type": "uint256"
            },
            {
              "internalType": "uint256",
              "name": "maxFeePerGas",
              "type": "uint256"
            },
            {
              "internalType": "uint256",
              "name": "maxPriorityFeePerGas",
              "type": "uint256"
            },
            {
              "internalType": "bytes",
              "name": "paymasterAndData",
              "type": "bytes"
            },
            {
              "internalType": "bytes",
              "name": "signature",
              "type": "bytes"
            }
          ],
          "internalType": "struct UserOperation",
          "name": "userOp",
          "type": "tuple"
        },
        {
          "internalType": "bytes32",
          "name": "userOpHash",
          "type": "bytes32"
        },
        {
          "internalType": "uint256",
          "name": "missingAccountFunds",
          "type": "uint256"
        }
      ],
      "name": "validateUserOp",
      "outputs": [
        {
          "internalType": "uint256",
          "name": "validationData",
          "type": "uint256"
        }
      ],
      "stateMutability": "nonpayable",
      "type": "function"
    },
    {
      "inputs": [],
      "name": "webauthnVerifier",
      "outputs": [
        {
          "internalType": "address",
          "name": "",
          "type": "address"
        }
      ],
      "stateMutability": "view",
      "type": "function"
    },
    {
      "inputs": [
        {
          "internalType": "address payable",
          "name": "withdrawAddress",
          "type": "address"
        },
        {
          "internalType": "uint256",
          "name": "amount",
          "type": "uint256"
        }
      ],
      "name": "withdrawDepositTo",
      "outputs": [],
      "stateMutability": "nonpayable",
      "type": "function"
    },
    {
      "stateMutability": "payable",
      "type": "receive"
    }
  ],
  "bytecode": {
    "object": "0x610120604052306080523480156200001657600080fd5b5060405162004b0038038062004b00833981016040819052620000399162000147565b6001600160a01b038085166101005283811660a05282811660c052811660e052620000636200006d565b50505050620001af565b600054610100900460ff1615620000da5760405162461bcd60e51b815260206004820152602760248201527f496e697469616c697a61626c653a20636f6e747261637420697320696e697469604482015266616c697a696e6760c81b606482015260840160405180910390fd5b60005460ff908116146200012c576000805460ff191660ff9081179091556040519081527f7f26b83ff96e1f2b6a682f133852f6798a09c465da95921460cefb38474024989060200160405180910390a15b565b6001600160a01b03811681146200014457600080fd5b50565b600080600080608085870312156200015e57600080fd5b84516200016b816200012e565b60208601519094506200017e816200012e565b604086015190935062000191816200012e565b6060860151909250620001a4816200012e565b939692955090935050565b60805160a05160c05160e0516101005161489c620002646000396000818161051801528181610ed601528181610fff015281816115e9015281816116a701528181611c810152818161200b015261236b0152600081816105a301526123ce0152600081816103de01526130f20152600081816102df01528181611d840152818161298a0152612c20015260008181610b0501528181610bb5015281816110bb0152818161116b01526112b9015261489c6000f3fe6080604052600436106101d05760003560e01c806352d1902d116100f7578063bc197c8111610095578063d2a57ad111610064578063d2a57ad1146105da578063f23a6e61146105fa578063f62d188814610640578063ff69191d1461066057600080fd5b8063bc197c811461055c578063c399ec881461057c578063c45a015514610591578063d087d288146105c557600080fd5b80637065cb48116100d15780637065cb48146104bc5780639f070142146104dc578063b0d691fe14610509578063b61d27f61461053c57600080fd5b806352d1902d1461045b5780635a20d41c14610470578063665636141461049057600080fd5b8063312f2f151161016f57806347e1da2a1161013e57806347e1da2a146104005780634a58db19146104205780634d44560d146104285780634f1ef2861461044857600080fd5b8063312f2f151461036c5780633659cfe61461038c5780633a871cdd146103ac5780634640fc4d146103cc57600080fd5b8063150b7a02116101ab578063150b7a021461025c5780631a681c0d146102ad5780631c35b2f8146102cd5780632f54bf6e1461032657600080fd5b806223de29146101dc57806301ffc9a7146102035780630db026221461023857600080fd5b366101d757005b600080fd5b3480156101e857600080fd5b506102016101f736600461371e565b5050505050505050565b005b34801561020f57600080fd5b5061022361021e3660046137cf565b610680565b60405190151581526020015b60405180910390f35b34801561024457600080fd5b5061024e60015481565b60405190815260200161022f565b34801561026857600080fd5b5061027c610277366004613811565b610765565b6040517fffffffff00000000000000000000000000000000000000000000000000000000909116815260200161022f565b3480156102b957600080fd5b506102016102c8366004613884565b610790565b3480156102d957600080fd5b506103017f000000000000000000000000000000000000000000000000000000000000000081565b60405173ffffffffffffffffffffffffffffffffffffffff909116815260200161022f565b34801561033257600080fd5b506102236103413660046138da565b73ffffffffffffffffffffffffffffffffffffffff1660009081526002602052604090205460ff1690565b34801561037857600080fd5b5061024e610387366004613a11565b610abb565b34801561039857600080fd5b506102016103a73660046138da565b610aee565b3480156103b857600080fd5b5061024e6103c7366004613a56565b610cf8565b3480156103d857600080fd5b506103017f000000000000000000000000000000000000000000000000000000000000000081565b34801561040c57600080fd5b5061020161041b366004613aef565b610d1e565b610201610ed4565b34801561043457600080fd5b50610201610443366004613b89565b610f7a565b610201610456366004613bb5565b6110a4565b34801561046757600080fd5b5061024e61129f565b34801561047c57600080fd5b5061020161048b366004613b89565b61138b565b34801561049c57600080fd5b506003546104aa9060ff1681565b60405160ff909116815260200161022f565b3480156104c857600080fd5b506102016104d73660046138da565b61144c565b3480156104e857600080fd5b506104fc6104f7366004613c05565b6114d8565b60405161022f9190613cc4565b34801561051557600080fd5b507f0000000000000000000000000000000000000000000000000000000000000000610301565b34801561054857600080fd5b50610201610557366004613cd7565b611526565b34801561056857600080fd5b5061027c610577366004613d33565b611575565b34801561058857600080fd5b5061024e6115a3565b34801561059d57600080fd5b506103017f000000000000000000000000000000000000000000000000000000000000000081565b3480156105d157600080fd5b5061024e61165a565b3480156105e657600080fd5b506102016105f5366004613dd1565b6116d6565b34801561060657600080fd5b5061027c610615366004613e2c565b7ff23a6e61000000000000000000000000000000000000000000000000000000009695505050505050565b34801561064c57600080fd5b5061020161065b366004613e96565b6117bf565b34801561066c57600080fd5b5061020161067b366004613dd1565b611954565b60007fffffffff0000000000000000000000000000000000000000000000000000000082167f150b7a0200000000000000000000000000000000000000000000000000000000148061071357507fffffffff0000000000000000000000000000000000000000000000000000000082167f4e2312e000000000000000000000000000000000000000000000000000000000145b8061075f57507fffffffff0000000000000000000000000000000000000000000000000000000082167f01ffc9a700000000000000000000000000000000000000000000000000000000145b92915050565b7f150b7a02000000000000000000000000000000000000000000000000000000005b95945050505050565b60055485906000906107a29042613f07565b90506201518081106108715773ffffffffffffffffffffffffffffffffffffffff8716600090815260076020526040902054861115610867576040517f08c379a0000000000000000000000000000000000000000000000000000000008152602060048201526024808201527f657870656e6469747572652069732061626f7665206461696c7920616c6c6f7760448201527f616e63650000000000000000000000000000000000000000000000000000000060648201526084015b60405180910390fd5b6000600655610933565b73ffffffffffffffffffffffffffffffffffffffff87166000908152600760205260409020546006546108a5908890613f1a565b1115610933576040517f08c379a000000000000000000000000000000000000000000000000000000000815260206004820152603460248201527f657870656e64697475726520776f756c642074616b6520796f752061626f766560448201527f20746865206461696c7920616c6c6f77616e6365000000000000000000000000606482015260840161085e565b67adecc60412ce25a573a38b14af02a08a7ece8e735872d0937c1607ef6f7394c1555d5d28e1436b3920c0b880c5700b4793a461096f826119c9565b6040517f23b872dd00000000000000000000000000000000000000000000000000000000815273ffffffffffffffffffffffffffffffffffffffff89811660048301528381166024830152604482018b90528616906323b872dd906064016020604051808303816000875af11580156109ec573d6000803e3d6000fd5b505050506040513d601f19601f82011682018060405250810190610a109190613f2d565b508173ffffffffffffffffffffffffffffffffffffffff16639c7ee0bc84838a8a8a8f6040518763ffffffff1660e01b8152600401610a5496959493929190613f4f565b6020604051808303816000875af1158015610a73573d6000803e3d6000fd5b505050506040513d601f19601f82011682018060405250810190610a979190613fdf565b508860066000828254610aaa9190613f1a565b909155505050505050505050505050565b815160208184018101805160048252928201918501919091209190528160028110610ae557600080fd5b01549150829050565b73ffffffffffffffffffffffffffffffffffffffff7f0000000000000000000000000000000000000000000000000000000000000000163003610bb3576040517f08c379a000000000000000000000000000000000000000000000000000000000815260206004820152602c60248201527f46756e6374696f6e206d7573742062652063616c6c6564207468726f7567682060448201527f64656c656761746563616c6c0000000000000000000000000000000000000000606482015260840161085e565b7f000000000000000000000000000000000000000000000000000000000000000073ffffffffffffffffffffffffffffffffffffffff16610c287f360894a13ba1a3210667c828492db98dca3e2076cc3735a920a3ca505d382bbc5473ffffffffffffffffffffffffffffffffffffffff1690565b73ffffffffffffffffffffffffffffffffffffffff1614610ccb576040517f08c379a000000000000000000000000000000000000000000000000000000000815260206004820152602c60248201527f46756e6374696f6e206d7573742062652063616c6c6564207468726f7567682060448201527f6163746976652070726f78790000000000000000000000000000000000000000606482015260840161085e565b610cd9336000526002602052565b60408051600080825260208201909252610cf591839190611a6a565b50565b6000610d02611c69565b610d0c8484611d0a565b9050610d1782611f88565b9392505050565b610d26611ff3565b8481148015610d3c5750821580610d3c57508281145b610da2576040517f08c379a000000000000000000000000000000000000000000000000000000000815260206004820152601260248201527f77726f6e67206172726179206c656e6774680000000000000000000000000000604482015260640161085e565b6000839003610e585760005b85811015610e5257610e40878783818110610dcb57610dcb613ff8565b9050602002016020810190610de091906138da565b6000858585818110610df457610df4613ff8565b9050602002810190610e069190614027565b8080601f01602080910402602001604051908101604052809392919081815260200183838082843760009201919091525061209c92505050565b80610e4a8161408c565b915050610dae565b50610ecc565b60005b85811015610eca57610eb8878783818110610e7857610e78613ff8565b9050602002016020810190610e8d91906138da565b868684818110610e9f57610e9f613ff8565b90506020020135858585818110610df457610df4613ff8565b80610ec28161408c565b915050610e5b565b505b505050505050565b7f00000000000000000000000000000000000000000000000000000000000000006040517fb760faf900000000000000000000000000000000000000000000000000000000815230600482015273ffffffffffffffffffffffffffffffffffffffff919091169063b760faf99034906024016000604051808303818588803b158015610f5f57600080fd5b505af1158015610f73573d6000803e3d6000fd5b5050505050565b3360009081526002602052604090205460ff1680610f9757503330145b610ffd576040517f08c379a000000000000000000000000000000000000000000000000000000000815260206004820152601060248201527f41434c3a3a206f6e6c79206f776e657200000000000000000000000000000000604482015260640161085e565b7f00000000000000000000000000000000000000000000000000000000000000006040517f205c287800000000000000000000000000000000000000000000000000000000815273ffffffffffffffffffffffffffffffffffffffff848116600483015260248201849052919091169063205c287890604401600060405180830381600087803b15801561109057600080fd5b505af1158015610ecc573d6000803e3d6000fd5b73ffffffffffffffffffffffffffffffffffffffff7f0000000000000000000000000000000000000000000000000000000000000000163003611169576040517f08c379a000000000000000000000000000000000000000000000000000000000815260206004820152602c60248201527f46756e6374696f6e206d7573742062652063616c6c6564207468726f7567682060448201527f64656c656761746563616c6c0000000000000000000000000000000000000000606482015260840161085e565b7f000000000000000000000000000000000000000000000000000000000000000073ffffffffffffffffffffffffffffffffffffffff166111de7f360894a13ba1a3210667c828492db98dca3e2076cc3735a920a3ca505d382bbc5473ffffffffffffffffffffffffffffffffffffffff1690565b73ffffffffffffffffffffffffffffffffffffffff1614611281576040517f08c379a000000000000000000000000000000000000000000000000000000000815260206004820152602c60248201527f46756e6374696f6e206d7573742062652063616c6c6564207468726f7567682060448201527f6163746976652070726f78790000000000000000000000000000000000000000606482015260840161085e565b61128f336000526002602052565b61129b82826001611a6a565b5050565b60003073ffffffffffffffffffffffffffffffffffffffff7f00000000000000000000000000000000000000000000000000000000000000001614611366576040517f08c379a000000000000000000000000000000000000000000000000000000000815260206004820152603860248201527f555550535570677261646561626c653a206d757374206e6f742062652063616c60448201527f6c6564207468726f7567682064656c656761746563616c6c0000000000000000606482015260840161085e565b507f360894a13ba1a3210667c828492db98dca3e2076cc3735a920a3ca505d382bbc90565b3360009081526002602052604090205460ff16806113a857503330145b61140e576040517f08c379a000000000000000000000000000000000000000000000000000000000815260206004820152601060248201527f41434c3a3a206f6e6c79206f776e657200000000000000000000000000000000604482015260640161085e565b61141b6201518042613f07565b6005556000600681905573ffffffffffffffffffffffffffffffffffffffff90921682526007602052604090912055565b3360009081526002602052604090205460ff168061146957503330145b6114cf576040517f08c379a000000000000000000000000000000000000000000000000000000000815260206004820152601060248201527f41434c3a3a206f6e6c79206f776e657200000000000000000000000000000000604482015260640161085e565b610cf581612119565b60606114e6828486886140c4565b8080601f0160208091040260200160405190810160405280939291908181526020018383808284376000920191909152509293505050505b949350505050565b61152e611ff3565b61156f848484848080601f01602080910402602001604051908101604052809392919081815260200183838082843760009201919091525061209c92505050565b50505050565b7fbc197c81000000000000000000000000000000000000000000000000000000005b98975050505050505050565b6040517f70a0823100000000000000000000000000000000000000000000000000000000815230600482015260009073ffffffffffffffffffffffffffffffffffffffff7f000000000000000000000000000000000000000000000000000000000000000016906370a08231906024015b602060405180830381865afa158015611631573d6000803e3d6000fd5b505050506040513d601f19601f820116820180604052508101906116559190613fdf565b905090565b6040517f35567e1a0000000000000000000000000000000000000000000000000000000081523060048201526000602482018190529073ffffffffffffffffffffffffffffffffffffffff7f000000000000000000000000000000000000000000000000000000000000000016906335567e1a90604401611614565b3360009081526002602052604090205460ff16806116f357503330145b611759576040517f08c379a000000000000000000000000000000000000000000000000000000000815260206004820152601060248201527f41434c3a3a206f6e6c79206f776e657200000000000000000000000000000000604482015260640161085e565b6117ba83838080601f01602080910402602001604051908101604052809392919081815260200183838082843760009201919091525050604080518082018252925085915060029083908390808284376000920191909152506122d1915050565b505050565b600054610100900460ff16158080156117df5750600054600160ff909116105b806117f95750303b1580156117f9575060005460ff166001145b611885576040517f08c379a000000000000000000000000000000000000000000000000000000000815260206004820152602e60248201527f496e697469616c697a61626c653a20636f6e747261637420697320616c72656160448201527f647920696e697469616c697a6564000000000000000000000000000000000000606482015260840161085e565b600080547fffffffffffffffffffffffffffffffffffffffffffffffffffffffffffffff0016600117905580156118e357600080547fffffffffffffffffffffffffffffffffffffffffffffffffffffffffffff00ff166101001790555b6118ed838361232d565b80156117ba57600080547fffffffffffffffffffffffffffffffffffffffffffffffffffffffffffff00ff169055604051600181527f7f26b83ff96e1f2b6a682f133852f6798a09c465da95921460cefb38474024989060200160405180910390a1505050565b61195c6123b6565b60035460ff1615611759576040517f08c379a000000000000000000000000000000000000000000000000000000000815260206004820152601860248201527f6669727374207369676e657220616c7265616479207365740000000000000000604482015260640161085e565b60405173ffffffffffffffffffffffffffffffffffffffff82166024820152610cf590604401604080517fffffffffffffffffffffffffffffffffffffffffffffffffffffffffffffffe08184030181529190526020810180517bffffffffffffffffffffffffffffffffffffffffffffffffffffffff167f2c2ecbc200000000000000000000000000000000000000000000000000000000179052612455565b7f4910fdfa16fed3260ed0e7147f7cc6da11a60208b5b9406d12a635614ffd91435460ff1615611a9d576117ba83612476565b8273ffffffffffffffffffffffffffffffffffffffff166352d1902d6040518163ffffffff1660e01b8152600401602060405180830381865afa925050508015611b22575060408051601f3d9081017fffffffffffffffffffffffffffffffffffffffffffffffffffffffffffffffe0168201909252611b1f91810190613fdf565b60015b611bae576040517f08c379a000000000000000000000000000000000000000000000000000000000815260206004820152602e60248201527f45524331393637557067726164653a206e657720696d706c656d656e7461746960448201527f6f6e206973206e6f742055555053000000000000000000000000000000000000606482015260840161085e565b7f360894a13ba1a3210667c828492db98dca3e2076cc3735a920a3ca505d382bbc8114611c5d576040517f08c379a000000000000000000000000000000000000000000000000000000000815260206004820152602960248201527f45524331393637557067726164653a20756e737570706f727465642070726f7860448201527f6961626c65555549440000000000000000000000000000000000000000000000606482015260840161085e565b506117ba838383612580565b3373ffffffffffffffffffffffffffffffffffffffff7f00000000000000000000000000000000000000000000000000000000000000001614611d08576040517f08c379a000000000000000000000000000000000000000000000000000000000815260206004820152601c60248201527f6163636f756e743a206e6f742066726f6d20456e747279506f696e7400000000604482015260640161085e565b565b60008080611d1c610140860186614027565b905011611d2a576000611d54565b611d38610140850185614027565b6000818110611d4957611d49613ff8565b919091013560f81c90505b6003811115611d6557611d656140ee565b90506000816003811115611d7b57611d7b6140ee565b03611e495760007f000000000000000000000000000000000000000000000000000000000000000073ffffffffffffffffffffffffffffffffffffffff1662a7029b6040518163ffffffff1660e01b8152600401600060405180830381865afa158015611dec573d6000803e3d6000fd5b505050506040513d6000823e601f3d9081017fffffffffffffffffffffffffffffffffffffffffffffffffffffffffffffffe0168201604052611e32919081019061416d565b9050611e40818560016125a5565b9250505061075f565b6001816003811115611e5d57611e5d6140ee565b03611eb757611eaf611e73610140860186614027565b8080601f01602080910402602001604051908101604052809392919081815260200183838082843760009201829052508893509150612ac29050565b91505061075f565b6002816003811115611ecb57611ecb6140ee565b03611f1b57611eaf611ee1610140860186614027565b8080601f016020809104026020016040519081016040528093929190818152602001838380828437600092019190915250612d5492505050565b6003816003811115611f2f57611f2f6140ee565b03611f8157611eaf611f45610140860186614027565b8080601f016020809104026020016040519081016040528093929190818152602001838380828437600092018290525088935091506125a59050565b5092915050565b8015610cf55760405160009033907fffffffffffffffffffffffffffffffffffffffffffffffffffffffffffffffff90849084818181858888f193505050503d8060008114610f73576040519150601f19603f3d011682016040523d82523d6000602084013e610f73565b3373ffffffffffffffffffffffffffffffffffffffff7f000000000000000000000000000000000000000000000000000000000000000016148061203657503330145b611d08576040517f08c379a000000000000000000000000000000000000000000000000000000000815260206004820181905260248201527f6163636f756e743a206e6f74204f776e6572206f7220456e747279506f696e74604482015260640161085e565b6000808473ffffffffffffffffffffffffffffffffffffffff1684846040516120c591906141a2565b60006040518083038185875af1925050503d8060008114612102576040519150601f19603f3d011682016040523d82523d6000602084013e612107565b606091505b509150915081610f7357805160208201fd5b73ffffffffffffffffffffffffffffffffffffffff8116612196576040517f08c379a000000000000000000000000000000000000000000000000000000000815260206004820152601260248201527f41434c3a3a207a65726f20616464726573730000000000000000000000000000604482015260640161085e565b73ffffffffffffffffffffffffffffffffffffffff811660009081526002602052604090205460ff1615612226576040517f08c379a000000000000000000000000000000000000000000000000000000000815260206004820152601360248201527f41434c3a3a20616c7265616479206f776e657200000000000000000000000000604482015260640161085e565b60405173ffffffffffffffffffffffffffffffffffffffff821681527f994a936646fe87ffe4f1e469d3d6aa417d6b855598397f323de5b449f765f0c39060200160405180910390a173ffffffffffffffffffffffffffffffffffffffff8116600090815260026020526040902080547fffffffffffffffffffffffffffffffffffffffffffffffffffffffffffffff0016600190811790915580546122cb91613f1a565b60015550565b806004836040516122e291906141a2565b9081526040519081900360200190206122fc916002613649565b506003805460ff16906000612310836141be565b91906101000a81548160ff021916908360ff160217905550505050565b600861233a828483614276565b50600860405161234a9190614390565b6040519081900381209073ffffffffffffffffffffffffffffffffffffffff7f000000000000000000000000000000000000000000000000000000000000000016907fcc8d54b06e49fa725f7cd31eca14c929e956281b71b4823d38fda2857c70dcd290600090a35050565b3373ffffffffffffffffffffffffffffffffffffffff7f00000000000000000000000000000000000000000000000000000000000000001614611d08576040517f08c379a000000000000000000000000000000000000000000000000000000000815260206004820152600c60248201527f6f6e6c7920666163746f72790000000000000000000000000000000000000000604482015260640161085e565b80516a636f6e736f6c652e6c6f67602083016000808483855afa5050505050565b73ffffffffffffffffffffffffffffffffffffffff81163b61251a576040517f08c379a000000000000000000000000000000000000000000000000000000000815260206004820152602d60248201527f455243313936373a206e657720696d706c656d656e746174696f6e206973206e60448201527f6f74206120636f6e747261637400000000000000000000000000000000000000606482015260840161085e565b7f360894a13ba1a3210667c828492db98dca3e2076cc3735a920a3ca505d382bbc80547fffffffffffffffffffffffff00000000000000000000000000000000000000001673ffffffffffffffffffffffffffffffffffffffff92909216919091179055565b61258983612ef8565b6000825111806125965750805b156117ba5761156f8383612f45565b60008060008060008060008060006125bc8c612f6a565b98509850985098509850985098509850506000806000806125dc85612fac565b9450945094509450508d61267a57600880546125f7906141dd565b80601f0160208091040260200160405190810160405280929190818152602001828054612623906141dd565b80156126705780601f1061264557610100808354040283529160200191612670565b820191906000526020600020905b81548152906001019060200180831161265357829003601f168201915b505050505061267c565b835b60405160200161268c91906141a2565b60405160208183030381529060405280519060200120846040516020016126b391906141a2565b6040516020818303038152906040528051906020012014612730576040517f08c379a000000000000000000000000000000000000000000000000000000000815260206004820152601760248201527f696e636f7272656374206c6f67696e20666f7220736967000000000000000000604482015260640161085e565b8d15612748576127438383836001612fe1565b612755565b6127558383836000612fe1565b5050505089612764578a61276d565b61276d85614424565b61277686614424565b146127dd576040517f08c379a000000000000000000000000000000000000000000000000000000000815260206004820152601f60248201527f6368616c6c656e6765202620757365724f7048617368206d69736d6174636800604482015260640161085e565b6000876036815181106127f2576127f2613ff8565b0160209081015160405160f89190911c92506000913091639f0701429161281b918d91016141a2565b604080517fffffffffffffffffffffffffffffffffffffffffffffffffffffffffffffffe081840301815291905260376128558682613f1a565b6040518463ffffffff1660e01b815260040161287393929190614466565b600060405180830381865afa158015612890573d6000803e3d6000fd5b505050506040513d6000823e601f3d9081017fffffffffffffffffffffffffffffffffffffffffffffffffffffffffffffffe01682016040526128d6919081019061416d565b905060008c61292e576004826040516128ef91906141a2565b9081526040805191829003602001822082820190915260028282826020028201915b815481526020019060010190808311612911575050505050612984565b60405180604001604052807f46bfdfbddbc22d475a21be7fb6fb597a9e7aca90a4e76ba93a19b26985c87a1581526020017fa0e41b38419d2837cf8ea557f91b638c01c12a70230724ef06825f2393a76a708152505b905060007f000000000000000000000000000000000000000000000000000000000000000073ffffffffffffffffffffffffffffffffffffffff1663e60b57048d8d8d8d8d60405180604001604052808f81526020018e81525060405180604001604052808b6000600281106129fc576129fc613ff8565b602002015181526020018b600160028110612a1957612a19613ff8565b60200201518152506040518863ffffffff1660e01b8152600401612a4397969594939291906144ae565b6020604051808303816000875af1158015612a62573d6000803e3d6000fd5b505050506040513d601f19601f82011682018060405250810190612a869190613f2d565b90508d80612a92575080155b15612aac5760019c50505050505050505050505050610d17565b5060009f9e505050505050505050505050505050565b6000806000806000806000806000612ad98c612f6a565b985098509850985098509850985098505089612af5578a612afe565b612afe85614424565b612b0786614424565b14612b6e576040517f08c379a000000000000000000000000000000000000000000000000000000000815260206004820152601f60248201527f6368616c6c656e6765202620757365724f7048617368206d69736d6174636800604482015260640161085e565b60008a612bc457600482604051612b8591906141a2565b9081526040805191829003602001822082820190915260028282826020028201915b815481526020019060010190808311612ba7575050505050612c1a565b60405180604001604052807f46bfdfbddbc22d475a21be7fb6fb597a9e7aca90a4e76ba93a19b26985c87a1581526020017fa0e41b38419d2837cf8ea557f91b638c01c12a70230724ef06825f2393a76a708152505b905060007f000000000000000000000000000000000000000000000000000000000000000073ffffffffffffffffffffffffffffffffffffffff1663e60b57048b8b8b8b8b60405180604001604052808d81526020018c81525060405180604001604052808b600060028110612c9257612c92613ff8565b602002015181526020018b600160028110612caf57612caf613ff8565b60200201518152506040518863ffffffff1660e01b8152600401612cd997969594939291906144ae565b6020604051808303816000875af1158015612cf8573d6000803e3d6000fd5b505050506040513d601f19601f82011682018060405250810190612d1c9190613f2d565b90508b80612d28575080155b15612d405760019a5050505050505050505050610d17565b5060009d9c50505050505050505050505050565b6000612d5e61165a565b15612e11576040517f08c379a000000000000000000000000000000000000000000000000000000000815260206004820152604e60248201527f43616e277420757365204c6f67696e2053657276696365207369676e6174757260448201527f6520666f7220616e797468696e6720656c7365207468616e207468652066697260648201527f7374207472616e73616374696f6e000000000000000000000000000000000000608482015260a40161085e565b600080600080612e2086612fac565b9450945094509450506008604051602001612e3b9190614390565b6040516020818303038152906040528051906020012084604051602001612e6291906141a2565b6040516020818303038152906040528051906020012014612edf576040517f08c379a000000000000000000000000000000000000000000000000000000000815260206004820152601760248201527f696e636f7272656374206c6f67696e20666f7220736967000000000000000000604482015260640161085e565b612eec8383836000612fe1565b50600095945050505050565b612f0181612476565b60405173ffffffffffffffffffffffffffffffffffffffff8216907fbc7cd75a20ee27fd9adebab32041f755214dbc6bffa90cc0225b39da2e5c2d3b90600090a250565b6060610d178383604051806060016040528060278152602001614875602791396131d5565b60008060608060606000806000606089806020019051810190612f8d919061456a565b9850985098509850985098509850985098509193959799909294969850565b6000606080612fb9613687565b606085806020019051810190612fcf91906146c6565b939a9299509097509550909350915050565b806130535760035460ff1615613053576040517f08c379a000000000000000000000000000000000000000000000000000000000815260206004820152601860248201527f4669727374207369676e657220616c7265616479207365740000000000000000604482015260640161085e565b60405160009061308e907f02000000000000000000000000000000000000000000000000000000000000009060089088908890602001614788565b60405160208183030381529060405280519060200120905060006130e9846130e3847f19457468657265756d205369676e6564204d6573736167653a0a3332000000006000908152601c91909152603c902090565b9061325a565b9050826131cb577f000000000000000000000000000000000000000000000000000000000000000073ffffffffffffffffffffffffffffffffffffffff168173ffffffffffffffffffffffffffffffffffffffff16146131cb576040517f08c379a000000000000000000000000000000000000000000000000000000000815260206004820152602160248201527f696e636f7272656374206c6f67696e2073657276696365207369676e6174757260448201527f6500000000000000000000000000000000000000000000000000000000000000606482015260840161085e565b610ecc86866122d1565b60606000808573ffffffffffffffffffffffffffffffffffffffff16856040516131ff91906141a2565b600060405180830381855af49150503d806000811461323a576040519150601f19603f3d011682016040523d82523d6000602084013e61323f565b606091505b50915091506132508683838761327e565b9695505050505050565b6000806000613269858561331e565b9150915061327681613363565b509392505050565b6060831561331457825160000361330d5773ffffffffffffffffffffffffffffffffffffffff85163b61330d576040517f08c379a000000000000000000000000000000000000000000000000000000000815260206004820152601d60248201527f416464726573733a2063616c6c20746f206e6f6e2d636f6e7472616374000000604482015260640161085e565b508161151e565b61151e8383613516565b60008082516041036133545760208301516040840151606085015160001a6133488782858561355a565b9450945050505061335c565b506000905060025b9250929050565b6000816004811115613377576133776140ee565b0361337f5750565b6001816004811115613393576133936140ee565b036133fa576040517f08c379a000000000000000000000000000000000000000000000000000000000815260206004820152601860248201527f45434453413a20696e76616c6964207369676e61747572650000000000000000604482015260640161085e565b600281600481111561340e5761340e6140ee565b03613475576040517f08c379a000000000000000000000000000000000000000000000000000000000815260206004820152601f60248201527f45434453413a20696e76616c6964207369676e6174757265206c656e67746800604482015260640161085e565b6003816004811115613489576134896140ee565b03610cf5576040517f08c379a000000000000000000000000000000000000000000000000000000000815260206004820152602260248201527f45434453413a20696e76616c6964207369676e6174757265202773272076616c60448201527f7565000000000000000000000000000000000000000000000000000000000000606482015260840161085e565b8151156135265781518083602001fd5b806040517f08c379a000000000000000000000000000000000000000000000000000000000815260040161085e9190613cc4565b6000807f7fffffffffffffffffffffffffffffff5d576e7357a4501ddfe92f46681b20a08311156135915750600090506003613640565b6040805160008082526020820180845289905260ff881692820192909252606081018690526080810185905260019060a0016020604051602081039080840390855afa1580156135e5573d6000803e3d6000fd5b50506040517fffffffffffffffffffffffffffffffffffffffffffffffffffffffffffffffe0015191505073ffffffffffffffffffffffffffffffffffffffff811661363957600060019250925050613640565b9150600090505b94509492505050565b8260028101928215613677579160200282015b8281111561367757825182559160200191906001019061365c565b506136839291506136a5565b5090565b60405180604001604052806002906020820280368337509192915050565b5b8082111561368357600081556001016136a6565b73ffffffffffffffffffffffffffffffffffffffff81168114610cf557600080fd5b60008083601f8401126136ee57600080fd5b50813567ffffffffffffffff81111561370657600080fd5b60208301915083602082850101111561335c57600080fd5b60008060008060008060008060c0898b03121561373a57600080fd5b8835613745816136ba565b97506020890135613755816136ba565b96506040890135613765816136ba565b955060608901359450608089013567ffffffffffffffff8082111561378957600080fd5b6137958c838d016136dc565b909650945060a08b01359150808211156137ae57600080fd5b506137bb8b828c016136dc565b999c989b5096995094979396929594505050565b6000602082840312156137e157600080fd5b81357fffffffff0000000000000000000000000000000000000000000000000000000081168114610d1757600080fd5b60008060008060006080868803121561382957600080fd5b8535613834816136ba565b94506020860135613844816136ba565b935060408601359250606086013567ffffffffffffffff81111561386757600080fd5b613873888289016136dc565b969995985093965092949392505050565b60008060008060006080868803121561389c57600080fd5b85356138a7816136ba565b94506020860135935060408601356138be816136ba565b9250606086013567ffffffffffffffff81111561386757600080fd5b6000602082840312156138ec57600080fd5b8135610d17816136ba565b7f4e487b7100000000000000000000000000000000000000000000000000000000600052604160045260246000fd5b604051601f82017fffffffffffffffffffffffffffffffffffffffffffffffffffffffffffffffe016810167ffffffffffffffff8111828210171561396d5761396d6138f7565b604052919050565b600067ffffffffffffffff82111561398f5761398f6138f7565b50601f017fffffffffffffffffffffffffffffffffffffffffffffffffffffffffffffffe01660200190565b600082601f8301126139cc57600080fd5b81356139df6139da82613975565b613926565b8181528460208386010111156139f457600080fd5b816020850160208301376000918101602001919091529392505050565b60008060408385031215613a2457600080fd5b823567ffffffffffffffff811115613a3b57600080fd5b613a47858286016139bb565b95602094909401359450505050565b600080600060608486031215613a6b57600080fd5b833567ffffffffffffffff811115613a8257600080fd5b84016101608187031215613a9557600080fd5b95602085013595506040909401359392505050565b60008083601f840112613abc57600080fd5b50813567ffffffffffffffff811115613ad457600080fd5b6020830191508360208260051b850101111561335c57600080fd5b60008060008060008060608789031215613b0857600080fd5b863567ffffffffffffffff80821115613b2057600080fd5b613b2c8a838b01613aaa565b90985096506020890135915080821115613b4557600080fd5b613b518a838b01613aaa565b90965094506040890135915080821115613b6a57600080fd5b50613b7789828a01613aaa565b979a9699509497509295939492505050565b60008060408385031215613b9c57600080fd5b8235613ba7816136ba565b946020939093013593505050565b60008060408385031215613bc857600080fd5b8235613bd3816136ba565b9150602083013567ffffffffffffffff811115613bef57600080fd5b613bfb858286016139bb565b9150509250929050565b60008060008060608587031215613c1b57600080fd5b843567ffffffffffffffff811115613c3257600080fd5b613c3e878288016136dc565b90989097506020870135966040013595509350505050565b60005b83811015613c71578181015183820152602001613c59565b50506000910152565b60008151808452613c92816020860160208601613c56565b601f017fffffffffffffffffffffffffffffffffffffffffffffffffffffffffffffffe0169290920160200192915050565b602081526000610d176020830184613c7a565b60008060008060608587031215613ced57600080fd5b8435613cf8816136ba565b935060208501359250604085013567ffffffffffffffff811115613d1b57600080fd5b613d27878288016136dc565b95989497509550505050565b60008060008060008060008060a0898b031215613d4f57600080fd5b8835613d5a816136ba565b97506020890135613d6a816136ba565b9650604089013567ffffffffffffffff80821115613d8757600080fd5b613d938c838d01613aaa565b909850965060608b0135915080821115613dac57600080fd5b613db88c838d01613aaa565b909650945060808b01359150808211156137ae57600080fd5b600080600060608486031215613de657600080fd5b833567ffffffffffffffff811115613dfd57600080fd5b613e09868287016136dc565b90945092505060608401851015613e1f57600080fd5b6020840190509250925092565b60008060008060008060a08789031215613e4557600080fd5b8635613e50816136ba565b95506020870135613e60816136ba565b94506040870135935060608701359250608087013567ffffffffffffffff811115613e8a57600080fd5b613b7789828a016136dc565b60008060208385031215613ea957600080fd5b823567ffffffffffffffff811115613ec057600080fd5b613ecc858286016136dc565b90969095509350505050565b7f4e487b7100000000000000000000000000000000000000000000000000000000600052601160045260246000fd5b8181038181111561075f5761075f613ed8565b8082018082111561075f5761075f613ed8565b600060208284031215613f3f57600080fd5b81518015158114610d1757600080fd5b67ffffffffffffffff87168152600073ffffffffffffffffffffffffffffffffffffffff808816602084015260a060408401528560a0840152858760c0850137600060c0878501015260c07fffffffffffffffffffffffffffffffffffffffffffffffffffffffffffffffe0601f8801168401019150808516606084015250826080830152979650505050505050565b600060208284031215613ff157600080fd5b5051919050565b7f4e487b7100000000000000000000000000000000000000000000000000000000600052603260045260246000fd5b60008083357fffffffffffffffffffffffffffffffffffffffffffffffffffffffffffffffe184360301811261405c57600080fd5b83018035915067ffffffffffffffff82111561407757600080fd5b60200191503681900382131561335c57600080fd5b60007fffffffffffffffffffffffffffffffffffffffffffffffffffffffffffffffff82036140bd576140bd613ed8565b5060010190565b600080858511156140d457600080fd5b838611156140e157600080fd5b5050820193919092039150565b7f4e487b7100000000000000000000000000000000000000000000000000000000600052602160045260246000fd5b600061412b6139da84613975565b905082815283838301111561413f57600080fd5b610d17836020830184613c56565b600082601f83011261415e57600080fd5b610d178383516020850161411d565b60006020828403121561417f57600080fd5b815167ffffffffffffffff81111561419657600080fd5b61151e8482850161414d565b600082516141b4818460208701613c56565b9190910192915050565b600060ff821660ff81036141d4576141d4613ed8565b60010192915050565b600181811c908216806141f157607f821691505b60208210810361422a577f4e487b7100000000000000000000000000000000000000000000000000000000600052602260045260246000fd5b50919050565b601f8211156117ba57600081815260208120601f850160051c810160208610156142575750805b601f850160051c820191505b81811015610ecc57828155600101614263565b67ffffffffffffffff83111561428e5761428e6138f7565b6142a28361429c83546141dd565b83614230565b6000601f8411600181146142f457600085156142be5750838201355b7fffffffffffffffffffffffffffffffffffffffffffffffffffffffffffffffff600387901b1c1916600186901b178355610f73565b6000838152602090207fffffffffffffffffffffffffffffffffffffffffffffffffffffffffffffffe0861690835b828110156143435786850135825560209485019460019092019101614323565b508682101561437e577fffffffffffffffffffffffffffffffffffffffffffffffffffffffffffffffff60f88860031b161c19848701351681555b505060018560011b0183555050505050565b600080835461439e816141dd565b600182811680156143b657600181146143e957614418565b7fffffffffffffffffffffffffffffffffffffffffffffffffffffffffffffff0084168752821515830287019450614418565b8760005260208060002060005b8581101561440f5781548a8201529084019082016143f6565b50505082870194505b50929695505050505050565b8051602080830151919081101561422a577fffffffffffffffffffffffffffffffffffffffffffffffffffffffffffffffff60209190910360031b1b16919050565b6060815260006144796060830186613c7a565b60208301949094525060400152919050565b8060005b600281101561156f57815184526020938401939091019060010161448f565b60006101207fff000000000000000000000000000000000000000000000000000000000000008a1683528060208401526144ea8184018a613c7a565b905082810360408401526144fe8189613c7a565b905082810360608401526145128188613c7a565b91505084608083015261452860a083018561448b565b61159760e083018461448b565b80517fff000000000000000000000000000000000000000000000000000000000000008116811461456557600080fd5b919050565b60008060008060008060008060006101208a8c03121561458957600080fd5b6145928a614535565b98506145a060208b01614535565b975060408a015167ffffffffffffffff808211156145bd57600080fd5b6145c98d838e0161414d565b985060608c01519150808211156145df57600080fd5b6145eb8d838e0161414d565b975060808c015191508082111561460157600080fd5b61460d8d838e0161414d565b965060a08c0151955060c08c0151945060e08c015193506101008c015191508082111561463957600080fd5b506146468c828d0161414d565b9150509295985092959850929598565b600082601f83011261466757600080fd5b6040516040810181811067ffffffffffffffff8211171561468a5761468a6138f7565b80604052508060408401858111156146a157600080fd5b845b818110156146bb5780518352602092830192016146a3565b509195945050505050565b600080600080600060c086880312156146de57600080fd5b6146e786614535565b9450602086015167ffffffffffffffff8082111561470457600080fd5b818801915088601f83011261471857600080fd5b6147278983516020850161411d565b9550604088015191508082111561473d57600080fd5b61474989838a0161414d565b94506147588960608a01614656565b935060a088015191508082111561476e57600080fd5b5061477b8882890161414d565b9150509295509295909350565b7fff00000000000000000000000000000000000000000000000000000000000000851681526000602060a081840152600086546147c4816141dd565b8060a087015260c06001808416600081146147e6576001811461481e5761484c565b7fffffffffffffffffffffffffffffffffffffffffffffffffffffffffffffff008516838a01528284151560051b8a0101955061484c565b8b6000528660002060005b858110156148445781548b8201860152908301908801614829565b8a0184019650505b505050505083810360408501526148638187613c7a565b92505050610787606083018461448b56fe416464726573733a206c6f772d6c6576656c2064656c65676174652063616c6c206661696c6564",
    "linkReferences": {}
  },
  "methodIdentifiers": {
    "_signers(bytes,uint256)": "312f2f15",
    "_signersCount()": "66563614",
    "addDeposit()": "4a58db19",
    "addFirstSigner(bytes,uint256[2])": "ff69191d",
    "addOwner(address)": "7065cb48",
    "addSigner(bytes,uint256[2])": "d2a57ad1",
    "entryPoint()": "b0d691fe",
    "execute(address,uint256,bytes)": "b61d27f6",
    "executeBatch(address[],uint256[],bytes[])": "47e1da2a",
    "factory()": "c45a0155",
    "getDeposit()": "c399ec88",
    "getNonce()": "d087d288",
    "initialize(string)": "f62d1888",
    "isOwner(address)": "2f54bf6e",
    "loginService()": "4640fc4d",
    "onERC1155BatchReceived(address,address,uint256[],uint256[],bytes)": "bc197c81",
    "onERC1155Received(address,address,uint256,uint256,bytes)": "f23a6e61",
    "onERC721Received(address,address,uint256,bytes)": "150b7a02",
    "ownerCount()": "0db02622",
    "pay(address,uint256,address,string)": "1a681c0d",
    "proxiableUUID()": "52d1902d",
    "setDailyAllowance(address,uint256)": "5a20d41c",
    "sliceBytes(bytes,uint256,uint256)": "9f070142",
    "supportsInterface(bytes4)": "01ffc9a7",
    "tokensReceived(address,address,address,uint256,bytes,bytes)": "0023de29",
    "upgradeTo(address)": "3659cfe6",
    "upgradeToAndCall(address,bytes)": "4f1ef286",
    "validateUserOp((address,uint256,bytes,bytes,uint256,uint256,uint256,uint256,uint256,bytes,bytes),bytes32,uint256)": "3a871cdd",
    "webauthnVerifier()": "1c35b2f8",
    "withdrawDepositTo(address,uint256)": "4d44560d"
  },
  "id": 69
}